S00C0000706F76312E7372656392
S11300003DC0000056C0000054C0000052C00000B3
S113001050C000004EC000004CC000004AC00000A8
S113002048C0000046C0000044C0000042C00000B8
S113003040C0000040C000003CC000003AC00000C6
S113004038C0000036C0000034C0000032C00000D8
S113005030C000002EC000002CC000002AC00000E8
S113006028C0000026C0000024C0000022C00000F8
S113007020C000001EC000001CC0000011241FBED0
S1130080CFEFD8E0DEBFCDBF11E0A0E0B1E0E8E5FE
S1130090F1E002C005900D92A030B107D9F721E03C
S11300A0A0E0B1E001C01D92A030B207E1F718D082
S11300B051C0A6CF08951F920F920FB60F9211242C
S11300C08F939F9398B18FE3982798B99BB1892711
S11300D08BB99F918F910F900FBE0F901F90189521
S11300E07894E8DF56985E9A579A8AB18F638AB9F2
S11300F08BB1807C8BB987B18FEF87B988B118B881
S11301000F9A0E9A16981798E1E8F0E080818860BB
S11301108083808184608083EFE6F0E08081826068
S1130120808388E893E190938900809388009FEF0F
S11301304E9908C08BB1807C8BB988B118B81698D9
S11301401798F6CF8BB18F638BB988B198B9169A8B
S10B0150179AEECFF894FFCFDB
S9030000FC
